{
  "_format": "hh-sol-artifact-1",
  "contractName": "Raffle",
  "sourceName": "contracts/Raffle.sol",
  "abi": [
    {
      "inputs": [
        {
          "internalType": "address",
          "name": "vrfCoordinatorV2",
          "type": "address"
        },
        {
          "internalType": "uint256",
          "name": "entranceFee",
          "type": "uint256"
        },
        {
          "internalType": "bytes32",
          "name": "gasLane",
          "type": "bytes32"
        },
        {
          "internalType": "uint64",
          "name": "subscriptionId",
          "type": "uint64"
        },
        {
          "internalType": "uint32",
          "name": "callBackGasLimit",
          "type": "uint32"
        }
      ],
      "stateMutability": "nonpayable",
      "type": "constructor"
    },
    {
      "inputs": [
        {
          "internalType": "address",
          "name": "have",
          "type": "address"
        },
        {
          "internalType": "address",
          "name": "want",
          "type": "address"
        }
      ],
      "name": "OnlyCoordinatorCanFulfill",
      "type": "error"
    },
    {
      "inputs": [],
      "name": "Raffe__NotEnoughETHEntered",
      "type": "error"
    },
    {
      "inputs": [],
      "name": "Raffe__TransferFailed",
      "type": "error"
    },
    {
      "anonymous": false,
      "inputs": [
        {
          "indexed": true,
          "internalType": "address",
          "name": "player",
          "type": "address"
        }
      ],
      "name": "RaffleEnter",
      "type": "event"
    },
    {
      "anonymous": false,
      "inputs": [
        {
          "indexed": true,
          "internalType": "uint256",
          "name": "requestId",
          "type": "uint256"
        }
      ],
      "name": "RequestedRaffleWinner",
      "type": "event"
    },
    {
      "anonymous": false,
      "inputs": [
        {
          "indexed": true,
          "internalType": "address",
          "name": "winner",
          "type": "address"
        }
      ],
      "name": "WinnerPicked",
      "type": "event"
    },
    {
      "inputs": [],
      "name": "enterRaffle",
      "outputs": [],
      "stateMutability": "payable",
      "type": "function"
    },
    {
      "inputs": [],
      "name": "getEntranceFee",
      "outputs": [
        {
          "internalType": "uint256",
          "name": "",
          "type": "uint256"
        }
      ],
      "stateMutability": "view",
      "type": "function"
    },
    {
      "inputs": [
        {
          "internalType": "uint256",
          "name": "index",
          "type": "uint256"
        }
      ],
      "name": "getPlayer",
      "outputs": [
        {
          "internalType": "address",
          "name": "",
          "type": "address"
        }
      ],
      "stateMutability": "view",
      "type": "function"
    },
    {
      "inputs": [],
      "name": "getRecentWinner",
      "outputs": [
        {
          "internalType": "address",
          "name": "",
          "type": "address"
        }
      ],
      "stateMutability": "view",
      "type": "function"
    },
    {
      "inputs": [
        {
          "internalType": "uint256",
          "name": "requestId",
          "type": "uint256"
        },
        {
          "internalType": "uint256[]",
          "name": "randomWords",
          "type": "uint256[]"
        }
      ],
      "name": "rawFulfillRandomWords",
      "outputs": [],
      "stateMutability": "nonpayable",
      "type": "function"
    },
    {
      "inputs": [],
      "name": "requestRandomWinner",
      "outputs": [],
      "stateMutability": "nonpayable",
      "type": "function"
    }
  ],
  "bytecode": "0x6101206040523480156200001257600080fd5b5060405162000e9c38038062000e9c833981810160405281019062000038919062000261565b848073ffffffffffffffffffffffffffffffffffffffff1660808173ffffffffffffffffffffffffffffffffffffffff1681525050508360a0818152505084600160006101000a81548173ffffffffffffffffffffffffffffffffffffffff021916908373ffffffffffffffffffffffffffffffffffffffff1602179055508260c081815250508167ffffffffffffffff1660e08167ffffffffffffffff16815250508063ffffffff166101008163ffffffff16815250505050505050620002e9565b600080fd5b600073ffffffffffffffffffffffffffffffffffffffff82169050919050565b60006200012d8262000100565b9050919050565b6200013f8162000120565b81146200014b57600080fd5b50565b6000815190506200015f8162000134565b92915050565b6000819050919050565b6200017a8162000165565b81146200018657600080fd5b50565b6000815190506200019a816200016f565b92915050565b6000819050919050565b620001b581620001a0565b8114620001c157600080fd5b50565b600081519050620001d581620001aa565b92915050565b600067ffffffffffffffff82169050919050565b620001fa81620001db565b81146200020657600080fd5b50565b6000815190506200021a81620001ef565b92915050565b600063ffffffff82169050919050565b6200023b8162000220565b81146200024757600080fd5b50565b6000815190506200025b8162000230565b92915050565b600080600080600060a0868803121562000280576200027f620000fb565b5b600062000290888289016200014e565b9550506020620002a38882890162000189565b9450506040620002b688828901620001c4565b9350506060620002c98882890162000209565b9250506080620002dc888289016200024a565b9150509295509295909350565b60805160a05160c05160e05161010051610b606200033c60003960006103d1015260006103ae0152600061038d01526000818161013b015261022101526000818161016101526101b50152610b606000f3fe6080604052600436106100555760003560e01c806309bc33a71461005a5780631fe543e3146100855780632cfcc539146100ae578063473f1ddc146100b8578063522a1f0b146100e3578063e55ae4e8146100fa575b600080fd5b34801561006657600080fd5b5061006f610137565b60405161007c9190610686565b60405180910390f35b34801561009157600080fd5b506100ac60048036038101906100a7919061083a565b61015f565b005b6100b661021f565b005b3480156100c457600080fd5b506100cd610321565b6040516100da91906108d7565b60405180910390f35b3480156100ef57600080fd5b506100f861034b565b005b34801561010657600080fd5b50610121600480360381019061011c91906108f2565b610487565b60405161012e91906108d7565b60405180910390f35b60007f0000000000000000000000000000000000000000000000000000000000000000905090565b7f000000000000000000000000000000000000000000000000000000000000000073ffffffffffffffffffffffffffffffffffffffff163373ffffffffffffffffffffffffffffffffffffffff161461021157337f00000000000000000000000000000000000000000000000000000000000000006040517f1cf993f400000000000000000000000000000000000000000000000000000000815260040161020892919061091f565b60405180910390fd5b61021b82826104ce565b5050565b7f0000000000000000000000000000000000000000000000000000000000000000341015610279576040517f938ea4a700000000000000000000000000000000000000000000000000000000815260040160405180910390fd5b6000339080600181540180825580915050600190039060005260206000200160009091909190916101000a81548173ffffffffffffffffffffffffffffffffffffffff021916908373ffffffffffffffffffffffffffffffffffffffff1602179055503373ffffffffffffffffffffffffffffffffffffffff167f0805e1d667bddb8a95f0f09880cf94f403fb596ce79928d9f29b74203ba284d460405160405180910390a2565b6000600260009054906101000a900473ffffffffffffffffffffffffffffffffffffffff16905090565b6000600160009054906101000a900473ffffffffffffffffffffffffffffffffffffffff1673ffffffffffffffffffffffffffffffffffffffff16635d3b1d307f00000000000000000000000000000000000000000000000000000000000000007f000000000000000000000000000000000000000000000000000000000000000060037f000000000000000000000000000000000000000000000000000000000000000060016040518663ffffffff1660e01b81526004016104129594939291906109c0565b6020604051808303816000875af1158015610431573d6000803e3d6000fd5b505050506040513d601f19601f820116820180604052508101906104559190610a28565b9050807fcd6e45c8998311cab7e9d4385596cac867e20a0587194b954fa3a731c93ce78b60405160405180910390a250565b600080828154811061049c5761049b610a55565b5b9060005260206000200160009054906101000a900473ffffffffffffffffffffffffffffffffffffffff169050919050565b60008080549050826000815181106104e9576104e8610a55565b5b60200260200101516104fb9190610ab3565b9050600080828154811061051257610511610a55565b5b9060005260206000200160009054906101000a900473ffffffffffffffffffffffffffffffffffffffff16905080600260006101000a81548173ffffffffffffffffffffffffffffffffffffffff021916908373ffffffffffffffffffffffffffffffffffffffff16021790555060008173ffffffffffffffffffffffffffffffffffffffff16476040516105a690610b15565b60006040518083038185875af1925050503d80600081146105e3576040519150601f19603f3d011682016040523d82523d6000602084013e6105e8565b606091505b5050905080610623576040517fc897ec7000000000000000000000000000000000000000000000000000000000815260040160405180910390fd5b8173ffffffffffffffffffffffffffffffffffffffff167f5b690ec4a06fe979403046eaeea5b3ce38524683c3001f662c8b5a829632f7df60405160405180910390a25050505050565b6000819050919050565b6106808161066d565b82525050565b600060208201905061069b6000830184610677565b92915050565b6000604051905090565b600080fd5b600080fd5b6106be8161066d565b81146106c957600080fd5b50565b6000813590506106db816106b5565b92915050565b600080fd5b6000601f19601f8301169050919050565b7f4e487b7100000000000000000000000000000000000000000000000000000000600052604160045260246000fd5b61072f826106e6565b810181811067ffffffffffffffff8211171561074e5761074d6106f7565b5b80604052505050565b60006107616106a1565b905061076d8282610726565b919050565b600067ffffffffffffffff82111561078d5761078c6106f7565b5b602082029050602081019050919050565b600080fd5b60006107b66107b184610772565b610757565b905080838252602082019050602084028301858111156107d9576107d861079e565b5b835b8181101561080257806107ee88826106cc565b8452602084019350506020810190506107db565b5050509392505050565b600082601f830112610821576108206106e1565b5b81356108318482602086016107a3565b91505092915050565b60008060408385031215610851576108506106ab565b5b600061085f858286016106cc565b925050602083013567ffffffffffffffff8111156108805761087f6106b0565b5b61088c8582860161080c565b9150509250929050565b600073ffffffffffffffffffffffffffffffffffffffff82169050919050565b60006108c182610896565b9050919050565b6108d1816108b6565b82525050565b60006020820190506108ec60008301846108c8565b92915050565b600060208284031215610908576109076106ab565b5b6000610916848285016106cc565b91505092915050565b600060408201905061093460008301856108c8565b61094160208301846108c8565b9392505050565b6000819050919050565b61095b81610948565b82525050565b600067ffffffffffffffff82169050919050565b61097e81610961565b82525050565b600061ffff82169050919050565b61099b81610984565b82525050565b600063ffffffff82169050919050565b6109ba816109a1565b82525050565b600060a0820190506109d56000830188610952565b6109e26020830187610975565b6109ef6040830186610992565b6109fc60608301856109b1565b610a0960808301846109b1565b9695505050505050565b600081519050610a22816106b5565b92915050565b600060208284031215610a3e57610a3d6106ab565b5b6000610a4c84828501610a13565b91505092915050565b7f4e487b7100000000000000000000000000000000000000000000000000000000600052603260045260246000fd5b7f4e487b7100000000000000000000000000000000000000000000000000000000600052601260045260246000fd5b6000610abe8261066d565b9150610ac98361066d565b925082610ad957610ad8610a84565b5b828206905092915050565b600081905092915050565b50565b6000610aff600083610ae4565b9150610b0a82610aef565b600082019050919050565b6000610b2082610af2565b915081905091905056fea264697066735822122076a9feb7afef3d48bdaf4384f737ce1163ea60f93fff16371826fa51be3f6e7664736f6c63430008180033",
  "linkReferences": {},
  "deployedLinkReferences": {}
}